S00F0000494E44504C43322E7372656329
S11300000C9434000C9451000C9451000C94510045
S11300100C9451000C9451000C9451000C94510018
S11300200C9451000C9451000C9451000C94510008
S11300300C9451000C9451000C9451000C945100F8
S11300400C9451000C9451000C9451000C945100E8
S11300500C9451000C9451000C9451000C945100D8
S11300600C9451000C94510011241FBECFEFD8E022
S1130070DEBFCDBF11E0A0E0B1E0EAE3F2E002C0F0
S113008005900D92A833B107D9F721E0A8E3B1E0B8
S113009001C01D92A933B207E1F70E9489000C94B4
S11300A01B010C940000862F0E94D0000895E0EC00
S11300B0F0E0908195FFFDCF8093C6000895CF9323
S11300C0DF93EC018881882331F021960E94570048
S11300D089918111FBCF8AE00E9457008DE00E9434
S11300E05700DF91CF9108951092C000E1ECF0E049
S11300F0808188618083A2ECB0E08C9186608C93CF
S11301001092C50087E68093C40080818068808354
S113011008950E94740063E088E391E00E94530014
S1130120882331F080E091E00E945F00C1E005C0C7
S11301308CE091E00E945F00C0E0CC2329F08BE1C9
S113014091E00E945F00F9CF87E291E00E945F0096
S1130150F4CF8EBD0DB407FEFDCF8EB50895CF93B9
S1130160DF93D82FC62F2A9882E00E94A9008D2FF2
S11301700E94A9008C2F0E94A9002A9ADF91CF9196
S11301800895CF93C82F2A9883E00E94A9008C2F4A
S11301900E94A9008FEF0E94A9002A9ACF91089586
S11301A0CF93C82F2A9A229A2D982B982C98259A67
S11301B0239A249852985A9A81E58CBD1DBC2A989A
S11301C080EC0E94A9002A9A83E08A95F1F7000046
S11301D02A9882E00E94A90088E20E94A90082E095
S11301E00E94A90080E90E94A9008C2F0E94A90006
S11301F083E00E94A9002A9A8AE20E94C100C817DB
S113020019F0289A80E015C060E08CE00E94AF00ED
S113021060E08DE00E94AF0060E680E60E94AF00DF
S113022060E680E70E94AF0060E08FE00E94AF00CC
S10D023081E0CF910895F894FFCF08
S113023A43414E20496E6974206F6B0043616E27F7
S113024A7420696E69742043414E00636F6E6E6553
S113025A637465640A0D006E6F7420636F6E6E6555
S10B026A637465640D0A0000D1
S9030000FC
